{
  "contractName": "ImageStore",
  "abi": [
    {
      "constant": true,
      "inputs": [],
      "name": "paused",
      "outputs": [
        {
          "name": "",
          "type": "bool"
        }
      ],
      "payable": false,
      "stateMutability": "view",
      "type": "function"
    },
    {
      "constant": true,
      "inputs": [
        {
          "name": "",
          "type": "uint256"
        }
      ],
      "name": "images",
      "outputs": [
        {
          "name": "imageHash",
          "type": "string"
        },
        {
          "name": "userAddress",
          "type": "address"
        },
        {
          "name": "uploadDate",
          "type": "string"
        }
      ],
      "payable": false,
      "stateMutability": "view",
      "type": "function"
    },
    {
      "constant": true,
      "inputs": [],
      "name": "owner",
      "outputs": [
        {
          "name": "",
          "type": "address"
        }
      ],
      "payable": false,
      "stateMutability": "view",
      "type": "function"
    },
    {
      "inputs": [],
      "payable": false,
      "stateMutability": "nonpayable",
      "type": "constructor"
    },
    {
      "anonymous": false,
      "inputs": [
        {
          "indexed": true,
          "name": "previousOwner",
          "type": "address"
        },
        {
          "indexed": true,
          "name": "newOwner",
          "type": "address"
        }
      ],
      "name": "OwnershipTransferred",
      "type": "event"
    },
    {
      "anonymous": false,
      "inputs": [
        {
          "indexed": false,
          "name": "_IPFSHash",
          "type": "string"
        },
        {
          "indexed": false,
          "name": "_add",
          "type": "address"
        },
        {
          "indexed": false,
          "name": "_date",
          "type": "string"
        }
      ],
      "name": "ImageUploaded",
      "type": "event"
    },
    {
      "anonymous": false,
      "inputs": [],
      "name": "Pause",
      "type": "event"
    },
    {
      "anonymous": false,
      "inputs": [],
      "name": "Unpause",
      "type": "event"
    },
    {
      "constant": true,
      "inputs": [],
      "name": "getOwner",
      "outputs": [
        {
          "name": "returnedOwner",
          "type": "address"
        }
      ],
      "payable": false,
      "stateMutability": "view",
      "type": "function"
    },
    {
      "constant": false,
      "inputs": [
        {
          "name": "newOwner",
          "type": "address"
        }
      ],
      "name": "transferOwnership",
      "outputs": [],
      "payable": false,
      "stateMutability": "nonpayable",
      "type": "function"
    },
    {
      "constant": false,
      "inputs": [
        {
          "name": "_hash",
          "type": "string"
        },
        {
          "name": "_date",
          "type": "string"
        }
      ],
      "name": "uploadImage",
      "outputs": [
        {
          "name": "",
          "type": "uint256"
        }
      ],
      "payable": false,
      "stateMutability": "nonpayable",
      "type": "function"
    },
    {
      "constant": true,
      "inputs": [
        {
          "name": "index",
          "type": "uint256"
        }
      ],
      "name": "getimageshash",
      "outputs": [
        {
          "name": "",
          "type": "string"
        }
      ],
      "payable": false,
      "stateMutability": "view",
      "type": "function"
    },
    {
      "constant": true,
      "inputs": [],
      "name": "imageLength",
      "outputs": [
        {
          "name": "",
          "type": "uint256"
        }
      ],
      "payable": false,
      "stateMutability": "view",
      "type": "function"
    },
    {
      "constant": false,
      "inputs": [],
      "name": "pause",
      "outputs": [],
      "payable": false,
      "stateMutability": "nonpayable",
      "type": "function"
    },
    {
      "constant": false,
      "inputs": [],
      "name": "unpause",
      "outputs": [],
      "payable": false,
      "stateMutability": "nonpayable",
      "type": "function"
    }
  ],
  "bytecode": "0x60806040526000600260006101000a81548160ff0219169083151502179055503480156200002c57600080fd5b50336000806101000a81548173ffffffffffffffffffffffffffffffffffffffff021916908373ffffffffffffffffffffffffffffffffffffffff16021790555060018054809190600101620000839190620001fd565b50606060405190810160405280602e81526020017f516d624c464b70366d504c636d657075777745527a5a5359424d55333167624281526020017f43584b6b6f75454d726b534c374d000000000000000000000000000000000000815250600180808054905003815481101515620000f757fe5b906000526020600020906003020160000190805190602001906200011d92919062000232565b50336001808080549050038154811015156200013557fe5b906000526020600020906003020160010160006101000a81548173ffffffffffffffffffffffffffffffffffffffff021916908373ffffffffffffffffffffffffffffffffffffffff1602179055506040805190810160405280601d81526020017f5361742c2032352041756720323031382032333a30333a343020474d54000000815250600180808054905003815481101515620001d057fe5b90600052602060002090600302016002019080519060200190620001f692919062000232565b506200039a565b8154818355818111156200022d576003028160030283600052602060002091820191016200022c9190620002b9565b5b505050565b828054600181600116156101000203166002900490600052602060002090601f016020900481019282601f106200027557805160ff1916838001178555620002a6565b82800160010185558215620002a6579182015b82811115620002a557825182559160200191906001019062000288565b5b509050620002b5919062000326565b5090565b6200032391905b808211156200031f5760008082016000620002dc91906200034e565b6001820160006101000a81549073ffffffffffffffffffffffffffffffffffffffff02191690556002820160006200031591906200034e565b50600301620002c0565b5090565b90565b6200034b91905b80821115620003475760008160009055506001016200032d565b5090565b90565b50805460018160011615610100020316600290046000825580601f1062000376575062000397565b601f01602090049060005260206000209081019062000396919062000326565b5b50565b610fef80620003aa6000396000f3006080604052600436106100a4576000357c0100000000000000000000000000000000000000000000000000000000900463ffffffff1680632fe323ec146100a95780633f4ba83a1461014f57806342d2d751146101665780635c975abb146101915780638456cb59146101c057806384856482146101d7578063893d20e81461031c5780638da5cb5b14610373578063a91b8314146103ca578063f2fde38b1461048d575b600080fd5b3480156100b557600080fd5b506100d4600480360381019080803590602001909291905050506104d0565b6040518080602001828103825283818151815260200191508051906020019080838360005b838110156101145780820151818401526020810190506100f9565b50505050905090810190601f1680156101415780820380516001836020036101000a031916815260200191505b509250505060405180910390f35b34801561015b57600080fd5b50610164610592565b005b34801561017257600080fd5b5061017b6106ba565b6040518082815260200191505060405180910390f35b34801561019d57600080fd5b506101a66106c7565b604051808215151515815260200191505060405180910390f35b3480156101cc57600080fd5b506101d56106da565b005b3480156101e357600080fd5b5061020260048036038101908080359060200190929190505050610803565b60405180806020018473ffffffffffffffffffffffffffffffffffffffff1673ffffffffffffffffffffffffffffffffffffffff16815260200180602001838103835286818151815260200191508051906020019080838360005b8381101561027857808201518184015260208101905061025d565b50505050905090810190601f1680156102a55780820380516001836020036101000a031916815260200191505b50838103825284818151815260200191508051906020019080838360005b838110156102de5780820151818401526020810190506102c3565b50505050905090810190601f16801561030b5780820380516001836020036101000a031916815260200191505b509550505050505060405180910390f35b34801561032857600080fd5b5061033161098c565b604051808273ffffffffffffffffffffffffffffffffffffffff1673ffffffffffffffffffffffffffffffffffffffff16815260200191505060405180910390f35b34801561037f57600080fd5b506103886109b5565b604051808273ffffffffffffffffffffffffffffffffffffffff1673ffffffffffffffffffffffffffffffffffffffff16815260200191505060405180910390f35b3480156103d657600080fd5b50610477600480360381019080803590602001908201803590602001908080601f0160208091040260200160405190810160405280939291908181526020018383808284378201915050505050509192919290803590602001908201803590602001908080601f01602080910402602001604051908101604052809392919081815260200183838082843782019150505050505091929192905050506109da565b6040518082815260200191505060405180910390f35b34801561049957600080fd5b506104ce600480360381019080803573ffffffffffffffffffffffffffffffffffffffff169060200190929190505050610c17565b005b60606001828154811015156104e157fe5b90600052602060002090600302016000018054600181600116156101000203166002900480601f0160208091040260200160405190810160405280929190818152602001828054600181600116156101000203166002900480156105865780601f1061055b57610100808354040283529160200191610586565b820191906000526020600020905b81548152906001019060200180831161056957829003601f168201915b50505050509050919050565b6000809054906101000a900473ffffffffffffffffffffffffffffffffffffffff1673ffffffffffffffffffffffffffffffffffffffff163373ffffffffffffffffffffffffffffffffffffffff16141515610656576040517f08c379a00000000000000000000000000000000000000000000000000000000081526004018080602001828103825260198152602001807f506c6561736520757365206f776e6572206163636f756e742e0000000000000081525060200191505060405180910390fd5b600260009054906101000a900460ff16151561067157600080fd5b6000600260006101000a81548160ff0219169083151502179055507f7805862f689e2f13df9f062ff482ad3ad112aca9e0847911ed832e158c525b3360405160405180910390a1565b6000600180549050905090565b600260009054906101000a900460ff1681565b6000809054906101000a900473ffffffffffffffffffffffffffffffffffffffff1673ffffffffffffffffffffffffffffffffffffffff163373ffffffffffffffffffffffffffffffffffffffff1614151561079e576040517f08c379a00000000000000000000000000000000000000000000000000000000081526004018080602001828103825260198152602001807f506c6561736520757365206f776e6572206163636f756e742e0000000000000081525060200191505060405180910390fd5b600260009054906101000a900460ff161515156107ba57600080fd5b6001600260006101000a81548160ff0219169083151502179055507f6985a02210a168e66602d3235cb6db0e70f92b3ba4d376a33c0f3d9434bff62560405160405180910390a1565b60018181548110151561081257fe5b9060005260206000209060030201600091509050806000018054600181600116156101000203166002900480601f0160208091040260200160405190810160405280929190818152602001828054600181600116156101000203166002900480156108be5780601f10610893576101008083540402835291602001916108be565b820191906000526020600020905b8154815290600101906020018083116108a157829003601f168201915b5050505050908060010160009054906101000a900473ffffffffffffffffffffffffffffffffffffffff1690806002018054600181600116156101000203166002900480601f0160208091040260200160405190810160405280929190818152602001828054600181600116156101000203166002900480156109825780601f1061095757610100808354040283529160200191610982565b820191906000526020600020905b81548152906001019060200180831161096557829003601f168201915b5050505050905083565b60008060009054906101000a900473ffffffffffffffffffffffffffffffffffffffff16905090565b6000809054906101000a900473ffffffffffffffffffffffffffffffffffffffff1681565b6000600180548091906001016109f09190610e3e565b5082600180808054905003815481101515610a0757fe5b90600052602060002090600302016000019080519060200190610a2b929190610e70565b5033600180808054905003815481101515610a4257fe5b906000526020600020906003020160010160006101000a81548173ffffffffffffffffffffffffffffffffffffffff021916908373ffffffffffffffffffffffffffffffffffffffff16021790555081600180808054905003815481101515610aa757fe5b90600052602060002090600302016002019080519060200190610acb929190610e70565b507f84ebe29cf583528a5773cfacb937a4b7481e59fa25ad0ad7398d0262409f3af583338460405180806020018473ffffffffffffffffffffffffffffffffffffffff1673ffffffffffffffffffffffffffffffffffffffff16815260200180602001838103835286818151815260200191508051906020019080838360005b83811015610b66578082015181840152602081019050610b4b565b50505050905090810190601f168015610b935780820380516001836020036101000a031916815260200191505b50838103825284818151815260200191508051906020019080838360005b83811015610bcc578082015181840152602081019050610bb1565b50505050905090810190601f168015610bf95780820380516001836020036101000a031916815260200191505b509550505050505060405180910390a1600180549050905092915050565b6000809054906101000a900473ffffffffffffffffffffffffffffffffffffffff1673ffffffffffffffffffffffffffffffffffffffff163373ffffffffffffffffffffffffffffffffffffffff16141515610cdb576040517f08c379a00000000000000000000000000000000000000000000000000000000081526004018080602001828103825260198152602001807f506c6561736520757365206f776e6572206163636f756e742e0000000000000081525060200191505060405180910390fd5b600073ffffffffffffffffffffffffffffffffffffffff168173ffffffffffffffffffffffffffffffffffffffff1614151515610d80576040517f08c379a00000000000000000000000000000000000000000000000000000000081526004018080602001828103825260208152602001807f4e65774f776e65722061646472657373206973206e6f7420636f72726563742e81525060200191505060405180910390fd5b8073ffffffffffffffffffffffffffffffffffffffff166000809054906101000a900473ffffffffffffffffffffffffffffffffffffffff1673ffffffffffffffffffffffffffffffffffffffff167f8be0079c531659141344cd1fd0a4f28419497f9722a3daafe3b4186f6b6457e060405160405180910390a3806000806101000a81548173ffffffffffffffffffffffffffffffffffffffff021916908373ffffffffffffffffffffffffffffffffffffffff16021790555050565b815481835581811115610e6b57600302816003028360005260206000209182019101610e6a9190610ef0565b5b505050565b828054600181600116156101000203166002900490600052602060002090601f016020900481019282601f10610eb157805160ff1916838001178555610edf565b82800160010185558215610edf579182015b82811115610ede578251825591602001919060010190610ec3565b5b509050610eec9190610f56565b5090565b610f5391905b80821115610f4f5760008082016000610f0f9190610f7b565b6001820160006101000a81549073ffffffffffffffffffffffffffffffffffffffff0219169055600282016000610f469190610f7b565b50600301610ef6565b5090565b90565b610f7891905b80821115610f74576000816000905550600101610f5c565b5090565b90565b50805460018160011615610100020316600290046000825580601f10610fa15750610fc0565b601f016020900490600052602060002090810190610fbf9190610f56565b5b505600a165627a7a72305820199b25756e3c1bee9b3139daf026fc90b7ff54a9884575264d4974b07bb2e6630029",
  "source": "pragma solidity ^0.4.23;\nimport \"./SafeMath256.sol\";\n\n/** @title Image Hash store contract. */\n\ncontract ImageStore {\n\n /** @dev This contract code has an owner address, and provides basic authorization control\n * functions, this simplifies the implementation of \"user permissions\".\n */\n    address public owner;\n\n    event OwnershipTransferred(address indexed previousOwner, address indexed newOwner);\n\n /** @dev The constructor sets the original `owner` of the contract to the address \n    *which created contract\n    */\n    constructor () public {\n        owner = msg.sender;\n        images.length++;\n        images[images.length-1].imageHash = \"QmbLFKp6mPLcmepuwwERzZSYBMU31gbBCXKkouEMrkSL7M\";\n        images[images.length-1].userAddress = msg.sender;\n        images[images.length-1].uploadDate = \"Sat, 25 Aug 2018 23:03:40 GMT\";\n    }\n\n    /**@dev Modifier to throw other then owner\n    */\n    modifier onlyOwner() {\n        require(msg.sender == owner,\"Please use owner account.\");\n        _;\n    }\n\n    // functions\n    /**\n    * @dev get the owner of the contract\n    * @return returns owner address\n    */\n    function getOwner()\n    public view\n    returns (address returnedOwner)\n    {\n        returnedOwner = owner;\n    }\n\n     /**@dev This allows onwership transfer to a different address\n       * @param newOwner The address to transfer ownership to.\n       */\n    \n    function transferOwnership(address newOwner) public onlyOwner {\n        require(newOwner != address(0),\"NewOwner address is not correct.\");\n        emit OwnershipTransferred(owner, newOwner);\n        owner = newOwner;\n    }\n\n    /**@dev contract code to store hash from IPFS, with user address and upload date.\n      */\n    // SafeMath32 library.\n    using SafeMath256 for uint256;\n    struct Image{\n        string imageHash;\n        address userAddress;\n        string uploadDate;\n    }\n    Image[] public images;\n    event ImageUploaded( string _IPFSHash, address _add, string _date);\n\n    /**@dev This allows to store image hash, upload address and upload date\n      * @param _hash IPFS hash to be stored.\n      * @param _date Upload date to be stored.\n      * @return Uint256 of image length\n      */\n\n    function uploadImage(string _hash, string _date) public returns(uint256) {\n        images.length++;\n        images[images.length-1].imageHash = _hash;\n        images[images.length-1].userAddress = msg.sender;\n        images[images.length-1].uploadDate = _date;\n        emit ImageUploaded(_hash, msg.sender, _date);\n        return images.length;\n    }\n\n    /** @dev Returns image hash for an index\n      * @param index Uint value for index of image hash\n      * @return String value of image hash\n      */\n\n    function getimageshash(uint index) public view returns( string) {\n        return (images[index].imageHash);\n    }\n\n    /** @dev Returns image hash for an index\n      * @return String value of image hash\n      */\n    \n    function imageLength() public view returns (uint256){\n        return images.length;\n    }\n    /**@dev contract code to allow an emergency stop mechanism.\n      */\n    event Pause();\n    event Unpause();\n\n    bool public paused = false;\n\n\n    /**@dev Modifier to make a function callable only when the contract is not paused.\n      */\n    modifier whenNotPaused() {\n        require(!paused);\n        _;\n    }\n\n    /**@dev Modifier to make a function callable only when the contract is paused.\n      */\n    modifier whenPaused() {\n        require(paused);\n        _;\n    }\n\n    /**@dev can be called by only owner to pause, This is to trigger stopped state\n      */\n    function pause() public onlyOwner whenNotPaused {\n        paused = true;\n        emit Pause();\n    }\n\n    /**@dev can be called by only owner to unpause,This is to return to normal state\n      */\n    function unpause() public onlyOwner whenPaused {\n        paused = false;\n        emit Unpause();\n    }\n\n}",
  "sourcePath": "/Users/amityadav/Documents/ETH Training/ViewDapp/contracts/ImageStore.sol",
  "compiler": {
    "name": "solc",
    "version": "0.4.24+commit.e67f0147.Emscripten.clang"
  },
  "schemaVersion": "2.0.0",
  "updatedAt": "2018-08-26T05:11:44.497Z"
}