{
  "contractName": "ImageStore",
  "abi": [
    {
      "constant": true,
      "inputs": [
        {
          "name": "",
          "type": "uint256"
        }
      ],
      "name": "images",
      "outputs": [
        {
          "name": "imageHash",
          "type": "string"
        },
        {
          "name": "userAddress",
          "type": "address"
        },
        {
          "name": "uploadDate",
          "type": "string"
        }
      ],
      "payable": false,
      "stateMutability": "view",
      "type": "function"
    },
    {
      "anonymous": false,
      "inputs": [
        {
          "indexed": false,
          "name": "_IPFSHash",
          "type": "string"
        },
        {
          "indexed": false,
          "name": "_add",
          "type": "address"
        },
        {
          "indexed": false,
          "name": "_date",
          "type": "string"
        }
      ],
      "name": "ImageUploaded",
      "type": "event"
    },
    {
      "constant": false,
      "inputs": [
        {
          "name": "_hash",
          "type": "string"
        },
        {
          "name": "_date",
          "type": "string"
        }
      ],
      "name": "uploadImage",
      "outputs": [
        {
          "name": "",
          "type": "uint256"
        }
      ],
      "payable": false,
      "stateMutability": "nonpayable",
      "type": "function"
    },
    {
      "constant": true,
      "inputs": [
        {
          "name": "index",
          "type": "uint256"
        }
      ],
      "name": "getimages",
      "outputs": [
        {
          "name": "",
          "type": "string"
        }
      ],
      "payable": false,
      "stateMutability": "view",
      "type": "function"
    },
    {
      "constant": true,
      "inputs": [],
      "name": "imageLength",
      "outputs": [
        {
          "name": "",
          "type": "uint256"
        }
      ],
      "payable": false,
      "stateMutability": "view",
      "type": "function"
    }
  ],
  "bytecode": "0x608060405234801561001057600080fd5b5061098a806100206000396000f300608060405260043610610062576000357c0100000000000000000000000000000000000000000000000000000000900463ffffffff16806342d2d7511461006757806384856482146100925780638fb49a0a146101d7578063a91b83141461027d575b600080fd5b34801561007357600080fd5b5061007c610340565b6040518082815260200191505060405180910390f35b34801561009e57600080fd5b506100bd6004803603810190808035906020019092919050505061034c565b60405180806020018473ffffffffffffffffffffffffffffffffffffffff1673ffffffffffffffffffffffffffffffffffffffff16815260200180602001838103835286818151815260200191508051906020019080838360005b83811015610133578082015181840152602081019050610118565b50505050905090810190601f1680156101605780820380516001836020036101000a031916815260200191505b50838103825284818151815260200191508051906020019080838360005b8381101561019957808201518184015260208101905061017e565b50505050905090810190601f1680156101c65780820380516001836020036101000a031916815260200191505b509550505050505060405180910390f35b3480156101e357600080fd5b50610202600480360381019080803590602001909291905050506104d5565b6040518080602001828103825283818151815260200191508051906020019080838360005b83811015610242578082015181840152602081019050610227565b50505050905090810190601f16801561026f5780820380516001836020036101000a031916815260200191505b509250505060405180910390f35b34801561028957600080fd5b5061032a600480360381019080803590602001908201803590602001908080601f0160208091040260200160405190810160405280939291908181526020018383808284378201915050505050509192919290803590602001908201803590602001908080601f0160208091040260200160405190810160405280939291908181526020018383808284378201915050505050509192919290505050610597565b6040518082815260200191505060405180910390f35b60008080549050905090565b60008181548110151561035b57fe5b9060005260206000209060030201600091509050806000018054600181600116156101000203166002900480601f0160208091040260200160405190810160405280929190818152602001828054600181600116156101000203166002900480156104075780601f106103dc57610100808354040283529160200191610407565b820191906000526020600020905b8154815290600101906020018083116103ea57829003601f168201915b5050505050908060010160009054906101000a900473ffffffffffffffffffffffffffffffffffffffff1690806002018054600181600116156101000203166002900480601f0160208091040260200160405190810160405280929190818152602001828054600181600116156101000203166002900480156104cb5780601f106104a0576101008083540402835291602001916104cb565b820191906000526020600020905b8154815290600101906020018083116104ae57829003601f168201915b5050505050905083565b60606000828154811015156104e657fe5b90600052602060002090600302016000018054600181600116156101000203166002900480601f01602080910402602001604051908101604052809291908181526020018280546001816001161561010002031660029004801561058b5780601f106105605761010080835404028352916020019161058b565b820191906000526020600020905b81548152906001019060200180831161056e57829003601f168201915b50505050509050919050565b60008080548091906001016105ac91906107d9565b508260006001600080549050038154811015156105c557fe5b906000526020600020906003020160000190805190602001906105e992919061080b565b5033600060016000805490500381548110151561060257fe5b906000526020600020906003020160010160006101000a81548173ffffffffffffffffffffffffffffffffffffffff021916908373ffffffffffffffffffffffffffffffffffffffff16021790555081600060016000805490500381548110151561066957fe5b9060005260206000209060030201600201908051906020019061068d92919061080b565b507f84ebe29cf583528a5773cfacb937a4b7481e59fa25ad0ad7398d0262409f3af583338460405180806020018473ffffffffffffffffffffffffffffffffffffffff1673ffffffffffffffffffffffffffffffffffffffff16815260200180602001838103835286818151815260200191508051906020019080838360005b8381101561072857808201518184015260208101905061070d565b50505050905090810190601f1680156107555780820380516001836020036101000a031916815260200191505b50838103825284818151815260200191508051906020019080838360005b8381101561078e578082015181840152602081019050610773565b50505050905090810190601f1680156107bb5780820380516001836020036101000a031916815260200191505b509550505050505060405180910390a1600080549050905092915050565b81548183558181111561080657600302816003028360005260206000209182019101610805919061088b565b5b505050565b828054600181600116156101000203166002900490600052602060002090601f016020900481019282601f1061084c57805160ff191683800117855561087a565b8280016001018555821561087a579182015b8281111561087957825182559160200191906001019061085e565b5b50905061088791906108f1565b5090565b6108ee91905b808211156108ea57600080820160006108aa9190610916565b6001820160006101000a81549073ffffffffffffffffffffffffffffffffffffffff02191690556002820160006108e19190610916565b50600301610891565b5090565b90565b61091391905b8082111561090f5760008160009055506001016108f7565b5090565b90565b50805460018160011615610100020316600290046000825580601f1061093c575061095b565b601f01602090049060005260206000209081019061095a91906108f1565b5b505600a165627a7a7230582089573c087a26fc83e9921e49e021c3647d5a1d593861eb7ae7da27efa754a7c30029",
  "source": "pragma solidity ^0.4.23;\n\ncontract ImageStore {\n\n    \n    struct Image{\n        string imageHash;\n        address userAddress;\n        string uploadDate;\n    }\n    Image[] public images;\n    event ImageUploaded( string _IPFSHash, address _add, string _date);\n\n    function uploadImage(string _hash, string _date) public returns(uint) {\n        images.length++;\n        images[images.length-1].imageHash = _hash;\n        images[images.length-1].userAddress = msg.sender;\n        images[images.length-1].uploadDate = _date;\n        emit ImageUploaded(_hash, msg.sender, _date);\n        return images.length;\n    }\n\n    function getimages(uint index) public view returns( string) {\n        return (images[index].imageHash);\n    }\n    \n    function imageLength() public view returns (uint){\n        return images.length;\n    }\n}",
  "sourcePath": "/Users/amityadav/Documents/ETH Training/ViewDapp/contracts/ImageStore.sol",
  "compiler": {
    "name": "solc",
    "version": "0.4.24+commit.e67f0147.Emscripten.clang"
  },
  "schemaVersion": "2.0.0",
  "updatedAt": "2018-08-24T14:47:12.588Z"
}